{
  "address": "0x51F2356ff24ca260c6082Fed82854641abD9FE02",
  "abi": [
    {
      "inputs": [
        {
          "internalType": "bytes",
          "name": "transactions",
          "type": "bytes"
        }
      ],
      "name": "multiSend",
      "outputs": [],
      "stateMutability": "payable",
      "type": "function"
    }
  ],
  "transactionHash": "0xe5f2810cd53d980b229c8e1168e102f18dbfb3f478bbe6545f0a0b0787b0642c",
  "args": [],
  "numDeployments": 1,
  "solcInputHash": "ad19d0ad7e5189134a41583909001a7f",
  "bytecode": "0x608060405234801561001057600080fd5b506101a7806100206000396000f3fe60806040526004361061001e5760003560e01c80638d80ff0a14610023575b600080fd5b6100dc6004803603602081101561003957600080fd5b810190808035906020019064010000000081111561005657600080fd5b82018360208201111561006857600080fd5b8035906020019184600183028401116401000000008311171561008a57600080fd5b91908080601f016020809104026020016040519081016040528093929190818152602001838380828437600081840152601f19601f8201169050808301925050505050505091929192905050506100de565b005b805160205b8181101561016c578083015160f81c6001820184015160601c3081150281179050601583018501516035840186015160558501870160008560008114610130576001811461014057610145565b6000808585888a5af19150610145565b600080fd5b506000811415610159573d6000803e3d6000fd5b82605501870196505050505050506100e3565b50505056fea264697066735822122000250349ea75d699aeb18c12c69612fd1acc8c66ad1710a840b49574ece9b09364736f6c63430007060033",
  "devdoc": {
    "author": "Stefan George - @Georgi87Richard Meissner - @rmeissner",
    "kind": "dev",
    "methods": {
      "multiSend(bytes)": {
        "details": "Sends multiple transactions and reverts all if one fails.",
        "params": {
          "transactions": "Encoded transactions. Each transaction is encoded as a packed bytes of                     operation has to be uint8(0) in this version (=> 1 byte),                     to as a address (=> 20 bytes),                     value as a uint256 (=> 32 bytes),                     data length as a uint256 (=> 32 bytes),                     data as bytes.                     see abi.encodePacked for more information on packed encoding"
        }
      }
    },
    "title": "Multi Send Call Only - Allows to batch multiple transactions into one, but only calls",
    "version": 1
  },
  "userdoc": {
    "kind": "user",
    "methods": {
      "multiSend(bytes)": {
        "notice": "The code is for most part the same as the normal MultiSend (to keep compatibility),         but reverts if a transaction tries to use a delegatecall.This method is payable as delegatecalls keep the msg.value from the previous call         If the calling method (e.g. execTransaction) received ETH this would revert otherwise"
      }
    },
    "notice": "The guard logic is not required here as this contract doesn't support nested delegate calls",
    "version": 1
  },
  "storageLayout": {
    "storage": [],
    "types": null
  }
}