{
  "address": "0x9F26561a1912567F5605D5cD8328F332448b944B",
  "abi": [
    {
      "inputs": [],
      "stateMutability": "nonpayable",
      "type": "constructor"
    },
    {
      "anonymous": false,
      "inputs": [
        {
          "indexed": false,
          "internalType": "address",
          "name": "singleton",
          "type": "address"
        }
      ],
      "name": "ChangedMasterCopy",
      "type": "event"
    },
    {
      "anonymous": false,
      "inputs": [
        {
          "indexed": false,
          "internalType": "address",
          "name": "to",
          "type": "address"
        },
        {
          "indexed": false,
          "internalType": "uint256",
          "name": "value",
          "type": "uint256"
        },
        {
          "indexed": false,
          "internalType": "bytes",
          "name": "data",
          "type": "bytes"
        },
        {
          "indexed": false,
          "internalType": "enum Enum.Operation",
          "name": "operation",
          "type": "uint8"
        },
        {
          "indexed": false,
          "internalType": "uint256",
          "name": "safeTxGas",
          "type": "uint256"
        },
        {
          "indexed": false,
          "internalType": "uint256",
          "name": "baseGas",
          "type": "uint256"
        },
        {
          "indexed": false,
          "internalType": "uint256",
          "name": "gasPrice",
          "type": "uint256"
        },
        {
          "indexed": false,
          "internalType": "address",
          "name": "gasToken",
          "type": "address"
        },
        {
          "indexed": false,
          "internalType": "address payable",
          "name": "refundReceiver",
          "type": "address"
        },
        {
          "indexed": false,
          "internalType": "bytes",
          "name": "signatures",
          "type": "bytes"
        },
        {
          "indexed": false,
          "internalType": "bytes",
          "name": "additionalInfo",
          "type": "bytes"
        }
      ],
      "name": "SafeMultiSigTransaction",
      "type": "event"
    },
    {
      "anonymous": false,
      "inputs": [
        {
          "indexed": true,
          "internalType": "address",
          "name": "initiator",
          "type": "address"
        },
        {
          "indexed": false,
          "internalType": "address[]",
          "name": "owners",
          "type": "address[]"
        },
        {
          "indexed": false,
          "internalType": "uint256",
          "name": "threshold",
          "type": "uint256"
        },
        {
          "indexed": false,
          "internalType": "address",
          "name": "initializer",
          "type": "address"
        },
        {
          "indexed": false,
          "internalType": "address",
          "name": "fallbackHandler",
          "type": "address"
        }
      ],
      "name": "SafeSetup",
      "type": "event"
    },
    {
      "inputs": [],
      "name": "MIGRATION_SINGLETON",
      "outputs": [
        {
          "internalType": "address",
          "name": "",
          "type": "address"
        }
      ],
      "stateMutability": "view",
      "type": "function"
    },
    {
      "inputs": [
        {
          "internalType": "address",
          "name": "l2Singleton",
          "type": "address"
        },
        {
          "internalType": "address",
          "name": "fallbackHandler",
          "type": "address"
        }
      ],
      "name": "migrateFromV111",
      "outputs": [],
      "stateMutability": "nonpayable",
      "type": "function"
    },
    {
      "inputs": [
        {
          "internalType": "address",
          "name": "l2Singleton",
          "type": "address"
        }
      ],
      "name": "migrateToL2",
      "outputs": [],
      "stateMutability": "nonpayable",
      "type": "function"
    }
  ],
  "transactionHash": "0x39e1bc9395c3c999caa3111873b357cea37f4681c9dafb03c43e020a8ce127a3",
  "args": [],
  "numDeployments": 1,
  "solcInputHash": "ad19d0ad7e5189134a41583909001a7f",
  "bytecode": "0x60a060405234801561001057600080fd5b503073ffffffffffffffffffffffffffffffffffffffff1660808173ffffffffffffffffffffffffffffffffffffffff1660601b8152505060805160601c61166861007960003980610124528061014852806108415280610b70528061132552506116686000f3fe608060405234801561001057600080fd5b50600436106100415760003560e01c806372f7a95614610046578063d9a208121461007a578063ef2624ae146100de575b600080fd5b61004e610122565b604051808273ffffffffffffffffffffffffffffffffffffffff16815260200191505060405180910390f35b6100dc6004803603604081101561009057600080fd5b81019080803573ffffffffffffffffffffffffffffffffffffffff169060200190929190803573ffffffffffffffffffffffffffffffffffffffff169060200190929190505050610146565b005b610120600480360360208110156100f457600080fd5b81019080803573ffffffffffffffffffffffffffffffffffffffff169060200190929190505050610b6e565b005b7f000000000000000000000000000000000000000000000000000000000000000081565b7f000000000000000000000000000000000000000000000000000000000000000073ffffffffffffffffffffffffffffffffffffffff163073ffffffffffffffffffffffffffffffffffffffff1614156101eb576040517f08c379a00000000000000000000000000000000000000000000000000000000081526004018080602001828103825260308152602001806115646030913960400191505060405180910390fd5b600160055414610246576040517f08c379a00000000000000000000000000000000000000000000000000000000081526004018080602001828103825260228152602001806116116022913960400191505060405180910390fd5b61024f81611263565b6102a4576040517f08c379a00000000000000000000000000000000000000000000000000000000081526004018080602001828103825260218152602001806115946021913960400191505060405180910390fd5b60008060009054906101000a900473ffffffffffffffffffffffffffffffffffffffff1673ffffffffffffffffffffffffffffffffffffffff1663ffa1ad746040518163ffffffff1660e01b815260040160006040518083038186803b15801561030d57600080fd5b505afa158015610321573d6000803e3d6000fd5b505050506040513d6000823e3d601f19601f82011682018060405250602081101561034b57600080fd5b810190808051604051939291908464010000000082111561036b57600080fd5b8382019150602082018581111561038157600080fd5b825186600182028301116401000000008211171561039e57600080fd5b8083526020830192505050908051906020019080838360005b838110156103d25780820151818401526020810190506103b7565b50505050905090810190601f1680156103ff5780820380516001836020036101000a031916815260200191505b506040525050506040516020018082805190602001908083835b6020831061043c5780518252602082019150602081019050602083039250610419565b6001836020036101000a03801982511681845116808217855250505050505090500191505060405160208183030381529060405280519060200120905060405160200180807f312e312e310000000000000000000000000000000000000000000000000000008152506005019050604051602081830303815290604052805190602001208114610517576040517f08c379a000000000000000000000000000000000000000000000000000000000815260040180806020018281038252602b8152602001806115b5602b913960400191505060405180910390fd5b60008373ffffffffffffffffffffffffffffffffffffffff1663ffa1ad746040518163ffffffff1660e01b815260040160006040518083038186803b15801561055f57600080fd5b505afa158015610573573d6000803e3d6000fd5b505050506040513d6000823e3d601f19601f82011682018060405250602081101561059d57600080fd5b81019080805160405193929190846401000000008211156105bd57600080fd5b838201915060208201858111156105d357600080fd5b82518660018202830111640100000000821117156105f057600080fd5b8083526020830192505050908051906020019080838360005b83811015610624578082015181840152602081019050610609565b50505050905090810190601f1680156106515780820380516001836020036101000a031916815260200191505b506040525050506040516020018082805190602001908083835b6020831061068e578051825260208201915060208101905060208303925061066b565b6001836020036101000a03801982511681845116808217855250505050505090500191505060405160208183030381529060405280519060200120905060405160200180807f312e332e30000000000000000000000000000000000000000000000000000000815250600501905060405160208183030381529060405280519060200120811480610764575060405160200180807f312e342e3100000000000000000000000000000000000000000000000000000081525060050190506040516020818303038152906040528051906020012081145b6107b9576040517f08c379a000000000000000000000000000000000000000000000000000000000815260040180806020018281038252602b8152602001806115b5602b913960400191505060405180910390fd5b60003090508073ffffffffffffffffffffffffffffffffffffffff1663f08a0323856040518263ffffffff1660e01b8152600401808273ffffffffffffffffffffffffffffffffffffffff168152602001915050600060405180830381600087803b15801561082757600080fd5b505af115801561083b573d6000803e3d6000fd5b505050507f000000000000000000000000000000000000000000000000000000000000000073ffffffffffffffffffffffffffffffffffffffff167f141df868a6331af528e38c83b7aa03edc19be66e37ae67f9285bf4f8e3c6a1a88273ffffffffffffffffffffffffffffffffffffffff1663a0e67e2b6040518163ffffffff1660e01b815260040160006040518083038186803b1580156108dd57600080fd5b505afa1580156108f1573d6000803e3d6000fd5b505050506040513d6000823e3d601f19601f82011682018060405250602081101561091b57600080fd5b810190808051604051939291908464010000000082111561093b57600080fd5b8382019150602082018581111561095157600080fd5b825186602082028301116401000000008211171561096e57600080fd5b8083526020830192505050908051906020019060200280838360005b838110156109a557808201518184015260208101905061098a565b505050509050016040525050508373ffffffffffffffffffffffffffffffffffffffff1663e75235b86040518163ffffffff1660e01b815260040160206040518083038186803b1580156109f857600080fd5b505afa158015610a0c573d6000803e3d6000fd5b505050506040513d6020811015610a2257600080fd5b810190808051906020019092919050505060008860405180806020018581526020018473ffffffffffffffffffffffffffffffffffffffff1681526020018373ffffffffffffffffffffffffffffffffffffffff168152602001828103825286818151815260200191508051906020019060200280838360005b83811015610ab7578082015181840152602081019050610a9c565b505050509050019550505050505060405180910390a2600063d9a208128686604051602401808373ffffffffffffffffffffffffffffffffffffffff1681526020018273ffffffffffffffffffffffffffffffffffffffff168152602001925050506040516020818303038152906040529060e01b6020820180517bffffffffffffffffffffffffffffffffffffffffffffffffffffffff83818316178352505050509050610b668682611276565b505050505050565b7f000000000000000000000000000000000000000000000000000000000000000073ffffffffffffffffffffffffffffffffffffffff163073ffffffffffffffffffffffffffffffffffffffff161415610c13576040517f08c379a00000000000000000000000000000000000000000000000000000000081526004018080602001828103825260308152602001806115646030913960400191505060405180910390fd5b600160055414610c6e576040517f08c379a00000000000000000000000000000000000000000000000000000000081526004018080602001828103825260228152602001806116116022913960400191505060405180910390fd5b8073ffffffffffffffffffffffffffffffffffffffff1660008054906101000a900473ffffffffffffffffffffffffffffffffffffffff1673ffffffffffffffffffffffffffffffffffffffff161415610d13576040517f08c379a00000000000000000000000000000000000000000000000000000000081526004018080602001828103825260238152602001806115416023913960400191505060405180910390fd5b60008060009054906101000a900473ffffffffffffffffffffffffffffffffffffffff1673ffffffffffffffffffffffffffffffffffffffff1663ffa1ad746040518163ffffffff1660e01b815260040160006040518083038186803b158015610d7c57600080fd5b505afa158015610d90573d6000803e3d6000fd5b505050506040513d6000823e3d601f19601f820116820180604052506020811015610dba57600080fd5b8101908080516040519392919084640100000000821115610dda57600080fd5b83820191506020820185811115610df057600080fd5b8251866001820283011164010000000082111715610e0d57600080fd5b8083526020830192505050908051906020019080838360005b83811015610e41578082015181840152602081019050610e26565b50505050905090810190601f168015610e6e5780820380516001836020036101000a031916815260200191505b506040525050506040516020018082805190602001908083835b60208310610eab5780518252602082019150602081019050602083039250610e88565b6001836020036101000a03801982511681845116808217855250505050505090500191505060405160208183030381529060405280519060200120905060008273ffffffffffffffffffffffffffffffffffffffff1663ffa1ad746040518163ffffffff1660e01b815260040160006040518083038186803b158015610f3057600080fd5b505afa158015610f44573d6000803e3d6000fd5b505050506040513d6000823e3d601f19601f820116820180604052506020811015610f6e57600080fd5b8101908080516040519392919084640100000000821115610f8e57600080fd5b83820191506020820185811115610fa457600080fd5b8251866001820283011164010000000082111715610fc157600080fd5b8083526020830192505050908051906020019080838360005b83811015610ff5578082015181840152602081019050610fda565b50505050905090810190601f1680156110225780820380516001836020036101000a031916815260200191505b506040525050506040516020018082805190602001908083835b6020831061105f578051825260208201915060208101905060208303925061103c565b6001836020036101000a0380198251168184511680821785525050505050509050019150506040516020818303038152906040528051906020012090508082146110f4576040517f08c379a00000000000000000000000000000000000000000000000000000000081526004018080602001828103825260318152602001806115e06031913960400191505060405180910390fd5b60405160200180807f312e332e3000000000000000000000000000000000000000000000000000000081525060050190506040516020818303038152906040528051906020012081148061118d575060405160200180807f312e342e3100000000000000000000000000000000000000000000000000000081525060050190506040516020818303038152906040528051906020012081145b6111e2576040517f08c379a000000000000000000000000000000000000000000000000000000000815260040180806020018281038252602b8152602001806115b5602b913960400191505060405180910390fd5b600063ef2624ae84604051602401808273ffffffffffffffffffffffffffffffffffffffff1681526020019150506040516020818303038152906040529060e01b6020820180517bffffffffffffffffffffffffffffffffffffffffffffffffffffffff8381831617835250505050905061125d8482611276565b50505050565b600080823b905060008111915050919050565b816000806101000a81548173ffffffffffffffffffffffffffffffffffffffff021916908373ffffffffffffffffffffffffffffffffffffffff16021790555060008033600454604051602001808481526020018373ffffffffffffffffffffffffffffffffffffffff168152602001828152602001935050505060405160208183030381529060405290507f66753cd2356569ee081232e3be8909b950e0a76c1f8460c3a5e3c2be32b11bed7f0000000000000000000000000000000000000000000000000000000000000000600084600160008060008060008a604051808b73ffffffffffffffffffffffffffffffffffffffff1681526020018a81526020018060200189600181111561138857fe5b81526020018881526020018781526020018681526020018573ffffffffffffffffffffffffffffffffffffffff1681526020018473ffffffffffffffffffffffffffffffffffffffff168152602001806020018060200184810384528c818151815260200191508051906020019080838360005b838110156114175780820151818401526020810190506113fc565b50505050905090810190601f1680156114445780820380516001836020036101000a031916815260200191505b50848103835260008152602001848103825285818151815260200191508051906020019080838360005b8381101561148957808201518184015260208101905061146e565b50505050905090810190601f1680156114b65780820380516001836020036101000a031916815260200191505b509d505050505050505050505050505060405180910390a17f75e41bc35ff1bf14d81d1d2f649c0084a0f974f9289c803ec9898eeec4c8d0b860008054906101000a900473ffffffffffffffffffffffffffffffffffffffff16604051808273ffffffffffffffffffffffffffffffffffffffff16815260200191505060405180910390a150505056fe5361666520697320616c7265616479207573696e67207468652073696e676c65746f6e4d6967726174696f6e2073686f756c64206f6e6c792062652063616c6c6564207669612064656c656761746563616c6c66616c6c6261636b48616e646c6572206973206e6f74206120636f6e747261637450726f76696465642073696e676c65746f6e2076657273696f6e206973206e6f7420737570706f727465644c322073696e676c65746f6e206d757374206d617463682063757272656e742076657273696f6e2073696e676c65746f6e53616665206d7573742068617665206e6f7420657865637574656420616e79207478a26469706673582212205cbaa2cb8d271642cf32c9e2026a0fbb37df64a695749dcdf6c6d9eb1a8bf69e64736f6c63430007060033",
  "devdoc": {
    "details": "IMPORTANT: The migration will only work with proxies that store the implementation address in the storage slot 0.",
    "events": {
      "ChangedMasterCopy(address)": {
        "params": {
          "singleton": "New master copy address"
        }
      }
    },
    "kind": "dev",
    "methods": {
      "constructor": {
        "details": "Initializes the migrationSingleton with the contract's own address."
      },
      "migrateFromV111(address,address)": {
        "details": "This function should only be called via a delegatecall to perform the upgrade. Singletons version will be checked, so it implies that contracts exist. A valid and compatible fallbackHandler needs to be provided, only existance will be checked."
      },
      "migrateToL2(address)": {
        "details": "This function should only be called via a delegatecall to perform the upgrade. Singletons versions will be compared, so it implies that contracts exist"
      }
    },
    "title": "Migration Contract for updating a Safe from 1.1.1/1.3.0/1.4.1 versions to a L2 version. Useful when replaying a Safe from a non L2 network in a L2 network.",
    "version": 1
  },
  "userdoc": {
    "events": {
      "ChangedMasterCopy(address)": {
        "notice": "Event indicating a change of master copy address."
      }
    },
    "kind": "user",
    "methods": {
      "constructor": {
        "notice": "Constructor"
      },
      "migrateFromV111(address,address)": {
        "notice": "Migrate from Safe 1.1.1 Singleton to 1.3.0 or 1.4.1 L2 Safe is required to have nonce 0 so backend can support it after the migration"
      },
      "migrateToL2(address)": {
        "notice": "Migrate from Safe 1.3.0/1.4.1 Singleton (L1) to the same version provided L2 singleton Safe is required to have nonce 0 so backend can support it after the migration"
      }
    },
    "notice": "This contract facilitates the migration of a Safe contract from version 1.1.1 to 1.3.0/1.4.1 L2, 1.3.0 to 1.3.0L2 or from 1.4.1 to 1.4.1L2         Other versions are not supported",
    "version": 1
  },
  "storageLayout": {
    "storage": [
      {
        "astId": 6104,
        "contract": "contracts/libraries/SafeToL2Migration.sol:SafeToL2Migration",
        "label": "singleton",
        "offset": 0,
        "slot": "0",
        "type": "t_address"
      },
      {
        "astId": 6108,
        "contract": "contracts/libraries/SafeToL2Migration.sol:SafeToL2Migration",
        "label": "modules",
        "offset": 0,
        "slot": "1",
        "type": "t_mapping(t_address,t_address)"
      },
      {
        "astId": 6112,
        "contract": "contracts/libraries/SafeToL2Migration.sol:SafeToL2Migration",
        "label": "owners",
        "offset": 0,
        "slot": "2",
        "type": "t_mapping(t_address,t_address)"
      },
      {
        "astId": 6114,
        "contract": "contracts/libraries/SafeToL2Migration.sol:SafeToL2Migration",
        "label": "ownerCount",
        "offset": 0,
        "slot": "3",
        "type": "t_uint256"
      },
      {
        "astId": 6116,
        "contract": "contracts/libraries/SafeToL2Migration.sol:SafeToL2Migration",
        "label": "threshold",
        "offset": 0,
        "slot": "4",
        "type": "t_uint256"
      },
      {
        "astId": 6118,
        "contract": "contracts/libraries/SafeToL2Migration.sol:SafeToL2Migration",
        "label": "nonce",
        "offset": 0,
        "slot": "5",
        "type": "t_uint256"
      },
      {
        "astId": 6120,
        "contract": "contracts/libraries/SafeToL2Migration.sol:SafeToL2Migration",
        "label": "_deprecatedDomainSeparator",
        "offset": 0,
        "slot": "6",
        "type": "t_bytes32"
      },
      {
        "astId": 6124,
        "contract": "contracts/libraries/SafeToL2Migration.sol:SafeToL2Migration",
        "label": "signedMessages",
        "offset": 0,
        "slot": "7",
        "type": "t_mapping(t_bytes32,t_uint256)"
      },
      {
        "astId": 6130,
        "contract": "contracts/libraries/SafeToL2Migration.sol:SafeToL2Migration",
        "label": "approvedHashes",
        "offset": 0,
        "slot": "8",
        "type": "t_mapping(t_address,t_mapping(t_bytes32,t_uint256))"
      }
    ],
    "types": {
      "t_address": {
        "encoding": "inplace",
        "label": "address",
        "numberOfBytes": "20"
      },
      "t_bytes32": {
        "encoding": "inplace",
        "label": "bytes32",
        "numberOfBytes": "32"
      },
      "t_mapping(t_address,t_address)": {
        "encoding": "mapping",
        "key": "t_address",
        "label": "mapping(address => address)",
        "numberOfBytes": "32",
        "value": "t_address"
      },
      "t_mapping(t_address,t_mapping(t_bytes32,t_uint256))": {
        "encoding": "mapping",
        "key": "t_address",
        "label": "mapping(address => mapping(bytes32 => uint256))",
        "numberOfBytes": "32",
        "value": "t_mapping(t_bytes32,t_uint256)"
      },
      "t_mapping(t_bytes32,t_uint256)": {
        "encoding": "mapping",
        "key": "t_bytes32",
        "label": "mapping(bytes32 => uint256)",
        "numberOfBytes": "32",
        "value": "t_uint256"
      },
      "t_uint256": {
        "encoding": "inplace",
        "label": "uint256",
        "numberOfBytes": "32"
      }
    }
  }
}